:1000000045C0000061C000005FC000005DC000008E
:100010005BC0000059C0000057C0000055C0000080
:1000200053C0000080C000004FC000004DC0000061
:100030004BC0000049C0000047C0000045C00000A0
:1000400044C0000041C00000A6C000003DC0000048
:100050003BC0000039C0000037C0000035C00000C0
:1000600033C0000031C000002FC000002DC00000D0
:100070002BC0000029C0000027C0000025C00000E0
:1000800023C0000021C000001FC0000011241FBEBB
:10009000CFEFD0E1DEBFCDBF11E0A0E0B1E0E0E006
:1000A000F8E100E00BBF02C007900D92A63AB1073D
:1000B000D9F725E0A6EAB1E001C01D92AF35B2073D
:1000C000E1F77BD70C94FE0B9BCF1F920F920FB6DC
:1000D0000F9211240BB60F922F933F934F935F9380
:1000E0006F937F938F939F93AF93BF93EF93FF9300
:1000F000A1D28A3011F01AD601C0F0D482E882BFB2
:10010000FF91EF91BF91AF919F918F917F916F91EF
:100110005F914F913F912F910F900BBE0F900FBEAB
:100120000F901F9018951F920F920FB60F921124E7
:100130000BB60F922F933F934F935F936F937F93E1
:100140008F939F93AF93BF93EF93FF93D2D3FF917E
:10015000EF91BF91AF919F918F917F916F915F913F
:100160004F913F912F910F900BBE0F900FBE0F90AC
:100170001F90189537D06AD264D76CD7789480E0F6
:1001800056D28AE05AD280E05EC2089549D25ED348
:100190007ED3EDC308951F920F920FB60F921124D4
:1001A0000BB60F922F933F934F935F936F937F9371
:1001B0008F939F93AF93BF93EF93FF93BDD7FF911F
:1001C000EF91BF91AF919F918F917F916F915F91CF
:1001D0004F913F912F910F900BBE0F900FBE0F903C
:1001E0001F90189520E049E350E06AE370E084EC4A
:1001F00091E01FD421E049E350E06AE370E08EEB28
:1002000091E017D422E049E350E06AE370E08CEA21
:1002100091E00FD423E049E350E06AE370E088EB1B
:1002200091E007D424E049E350E06AE370E082EB18
:1002300091E0FFD31BD728D785E080930001089574
:10024000F3D1823009F488C030F4882359F081302A
:1002500009F445C00895833009F4BBC0843009F423
:10026000F4C0089584EC91E0F1D3882321F08091CB
:100270000001811106C085E08093000180E0D7C1B4
:1002800008958EEB91E0E2D3882321F08091000164
:10029000823031F485E08093000180E0C8C1089588
:1002A0008CEA91E0D3D3882321F080910001813042
:1002B00031F485E08093000181E0B9C1089588EBB5
:1002C00091E0C4D3882329F080910001833009F0A4
:1002D000D9C085E08093000184E0A9C1089584EC31
:1002E00091E0B4D3882321F080910001811106C0F0
:1002F00085E08093000180E09AC108958EEB91E043
:10030000A5D3882321F080910001823031F485E06B
:100310008093000180E08BC108958CEA91E096D330
:10032000882321F080910001813031F485E08093B1
:10033000000182E07CC1089588EB91E087D3882397
:1003400029F080910001833009F09CC085E0809302
:10035000000184E06CC1089584EC91E077D3882398
:1003600021F080910001811106C085E08093000199
:1003700080E05DC108958EEB91E068D3882321F081
:1003800080910001823031F485E08093000181E0AA
:100390004EC108958CEA91E059D3882321F08091D1
:1003A0000001813031F485E08093000183E03FC19A
:1003B000089588EB91E04AD3882329F080910001C9
:1003C000833009F05FC085E08093000184E02FC195
:1003D000089584EC91E03AD3882321F080910001C4
:1003E000811106C085E08093000180E020C108955E
:1003F0008EEB91E02BD3882321F080910001823095
:1004000031F485E08093000182E011C108958CEA07
:1004100091E01CD3882321F080910001813031F4D8
:1004200085E08093000180E002C1089588EB91E0AF
:100430000DD3882321F080910001833019F585E0E8
:100440008093000184E0F3C0089584EC91E0FED233
:10045000882321F080910001811106C085E08093FE
:10046000000180E0E4C0089588EB91E0EFD288239A
:1004700021F080910001833029F485E08093000110
:1004800084E0D5C00895D6D08B30C1F018F48A30FE
:1004900031F008958C3009F18D3071F1089582EBBF
:1004A00091E0D4D2882321F080910001843091F52D
:1004B00083E1809300018BE0C0C0089582EB91E05E
:1004C000C5D2882321F080910001843019F583E1A1
:1004D000809300018CE0B1C0089582EB91E0B6D228
:1004E000882321F0809100018430A1F483E180937E
:1004F00000018DE0A2C0089582EB91E0A7D288238D
:1005000021F080910001843029F483E1809300017F
:100510008AE093C00895CF939091F4048091D20122
:10052000981709F47BC02091F404C0E5C29F9001A4
:1005300011242D523E4F3F932F9387E891E09F93D4
:100540008F933ED68091F404C89FC001112466E3C6
:1005500071E08D529E4F2BD60F900F900F900F9001
:10056000892B19F41092000143C08091F40420E516
:10057000829FC001112460E471E08D529E4F17D616
:10058000892B21F482E08093000132C08091F40431
:1005900020E5829FC00111246AE471E08D529E4FD4
:1005A00006D6892B21F481E08093000121C080913F
:1005B000F40420E5829FC001112462E571E08D52B0
:1005C0009E4FF5D5892B21F483E08093000110C064
:1005D0008091F40420E5829FC00111246FE571E051
:1005E0008D529E4FE4D5892B19F484E0809300014D
:1005F0008091F4048F5F8093F4042091F4048DECD7
:10060000289F812D1124869586958695880F982F91
:10061000990F990F890F281B2093F404CF91089507
:100620000FDE31DF78CF08958091CA01089580935D
:10063000CA0108958091CB0108958093CB0108955C
:100640008091CC0108958093CC01089539D2CBD309
:1006500029D244C40895DF92EF92FF920F931F9323
:10066000CF93DF93CDB7DEB76E970FB6F894DEBFAA
:100670000FBECDBF7C0183E18093A601DBDFD82EC6
:10068000D3DF8093CD01DCDF81E1EAE6F1E08E018A
:100690000F5F1F4FD80101900D928A95E1F7A801D5
:1006A00060E080E0E3D32D2D30E02A503109220FA5
:1006B000331F220F331F2F5F3E4F8091CD0190E0FB
:1006C000880F991F880F991F8B5E9E4F3F932F9322
:1006D0009F938F938BE791E09F938F931F930F933B
:1006E000B2D5A80160E081E0C1D30FB6F894DEBFB7
:1006F0000FBECDBF3BE0D316B9F03D1520F08AE028
:10070000D81651F095C09CE0D91609F43AC02DE0F6
:10071000D21609F462C08CC08091A601D81609F4E3
:1007200087C0D092A60184C08091A601D812D09231
:10073000A6019701A9E8B8E817D5AC0156954795E9
:10074000529542954F7045275F70452784E6849FF8
:10075000F001859FF00D11242CE3249FC001259FFB
:10076000900D11249701281B390BC9018E0F9F1F73
:10077000D8D2EF2809F05CC08AE05FDF81E063DF58
:1007800057C08091A601D812D092A6019701A9E87E
:10079000B8E8EAD4AC0156954795529542954F700A
:1007A00045275F70452784E6849FF001859FF00D03
:1007B00011242CE3249FC001259F900D1124970143
:1007C000281B390BC9018E0F9F1FABD2EF2881F573
:1007D0008AE033DF81E037DF2BC08091A601D81299
:1007E000D092A6019701A9E8B8E8BED4AC0156950D
:1007F0004795529542954F7045275F70452784E68F
:10080000849FF001859FF00D11242CE3249FC001EB
:10081000259F900D11249701281B390BC9018E0FBC
:100820009F1F7FD2EF2821F48AE007DF81E00BDFF2
:100830006E960FB6F894DEBF0FBECDBFDF91CF919D
:100840001F910F91FF90EF90DF9008958091CD015F
:10085000823089F028F4882341F0813041F00895F6
:10086000833069F0843079F008950DC3089507D37B
:1008700080E047C3089503D381E043C30895FFD2C6
:1008800082E03FC30895FBD283E03BC30895CCDEF2
:100890008230D9F028F4882341F0813079F008952E
:1008A0008330D1F08430F9F00895909129018917AF
:1008B000F9F0809329018AE0C0CE08959091290132
:1008C0008917B1F080932901089590912901891722
:1008D00079F080932901089590912901891741F0B9
:1008E000809329010895909129018913809329010A
:1008F0000895A0DE8A30D1F14091CE015091CF0110
:100900004F5F5F4F9A013695279536952795369517
:100910002795A5ECB0E228D4929582958F7089270F
:100920009F70892768EE73E0869F9001879F300D46
:10093000969F300D1124CA01821B930B9093CF0117
:100940008093CE01843F914008F4C1D0C4D08091FF
:10095000CE019091CF01892B49F48091D0019091E3
:10096000D10101979093D1018093D0010895CF9345
:10097000DF9360DEC82F58DED82F62DECB30E1F087
:1009800018F4CA3031F04DC0CC3041F1CD30C1F156
:1009900048C090912A01C91709F443C0C0932A01A5
:1009A0001092D1011092D001813009F03AC080E05C
:1009B0003EDE80E048DE35C0D11103C08AE03DDE76
:1009C00030C080912A01C81761F1C0932A0183E0E9
:1009D00090E09093D1018093D00123C0D11103C046
:1009E0008AE02BDE1EC080912A01C817D1F0C09387
:1009F0002A0188E592E09093D1018093D00111C043
:100A0000D11103C08AE019DE0CC080912A01C817F9
:100A100041F0C0932A0184E893E09093D101809340
:100A2000D0018091D0019091D10115DEDF91CF915D
:100A30000895FC01CB017183608353834283248337
:100A400031E03583422F61E0C4C20895FC01A281E8
:100A5000B3818C9121E030E0048002C0220F331F6B
:100A60000A94E2F7282361F48581813049F48FE309
:100A70009CE90197F1F700C00000158280E008951D
:100A8000222361F0858181110BC08FE39CE90197DE
:100A9000F1F700C0000081E08583089582E00895A9
:100AA00082E00895EAE8F0E0808183608083ABE82B
:100AB000B0E08C9182608C938081886180830895FE
:100AC00082B1806F82B98FEF80936100089581E0D9
:100AD0008093A80108951092A801089583B1806FB2
:100AE00083B980E48093620083B18F7E83B983B140
:100AF0008F7D83B983B18F7B83B983B18F7783B9BE
:100B000008950F931F93CF93DF93CDB7DEB72B9745
:100B10000FB6F894DEBF0FBECDBF8C018BE0EBE2C9
:100B2000F1E0DE01119601900D928A95E1F7809136
:100B3000A70190E0019665E070E003D38093A701E0
:100B4000823009F47AC030F4882359F0813009F4F6
:100B500041C0DCC0833009F4A1C0843009F4C6C0B0
:100B6000D5C083B1806F83B99801369527953695A6
:100B7000279536952795A5ECB0E2F6D2AC015295B3
:100B800042954F7045275F7045279A01ADECBCEC4C
:100B9000EBD29695879596958795969587959C0126
:100BA000220F331F880F991F880F991F880F991FD5
:100BB000820F931F9A01281B390BE1E0F0E0EC0F44
:100BC000FD1FE20FF31F80818093620083B18F7E4F
:100BD00083B99CC083B1806F83B9980136952795FE
:100BE00036952795ABE7B4E1BFD2AC015695479552
:100BF0009A01ADECBCECB8D2969587959695879501
:100C0000969587959C01220F331F880F991F880F97
:100C1000991F880F991F820F931F9A01281B390B68
:100C2000E1E0F0E0EC0FFD1FE20FF31F8081809305
:100C3000620083B18F7D83B969C083B1806F83B94E
:100C40009801ADECBCEC90D2AC0156954795569509
:100C50004795569547959A0187D29695879596958B
:100C60008795969587959C01220F331F880F991FB2
:100C7000880F991F880F991F820F931F9A01281BB5
:100C8000390BE1E0F0E0EC0FFD1FE20FF31F808174
:100C90008093620083B18F7B83B938C083B1806F4A
:100CA00083B99801ADECBCEC5FD29695879596958B
:100CB0008795969587959C01220F331F880F991F62
:100CC000880F991F880F991F820F931F9801281B67
:100CD000390BE1E0F0E0EC0FFD1FE20FF31F808124
:100CE0008093620083B18F7783B910C083B1806F26
:100CF00083B98091A801882321F08B8580936200BD
:100D000002C01092620083B18F7D83B92B960FB61B
:100D1000F894DEBF0FBECDBFDF91CF911F910F9131
:100D200008959093AA018093A90108958091A90143
:100D30009091AA01E6CE089542E060E084E690E05A
:100D400048D143E060E084E690E043D144E060E0D5
:100D500084E690E03ED160E084E390E031C1089504
:100D600040E062E085E690E052C1089541E062E033
:100D700085E690E04CC1089540E063E085E690E0B0
:100D800046C1089541E064E085E690E040D18FE9F6
:100D90009FE00197F1F700C00000089540E064E093
:100DA00085E690E034D18FE99FE00197F1F700C02C
:100DB00000000895682F85E390E026C10895CF9341
:100DC000C82FCEDFD9DFDEDF8C2FF4DFE7DFCF9156
:100DD0000895CF93C82FCADFCFDFD4DF8C2FEADF8F
:100DE000DDDFCF910895A8DF8FE59AEE0197F1F747
:100DF00000C0000088E3E3DF8FE19EE40197F1F794
:100E000000C0000088E3DBDF8FE99FE00197F1F786
:100E100000C0000088E3D3DF88E3D1DF88E0CFDFC4
:100E200081E0CDDF86E0CBDF8CE0C9CF08950F9362
:100E30001F93CF93DF938C01C0E0D0E002C0C9DFE5
:100E40002196F801EC0FFD1F80818111F8CFDF9111
:100E5000CF911F910F9108956F70817090E4899FD9
:100E6000600D1124862F8058AACF0895CF93DF9369
:100E7000EA01F2DFCE01DBDFDF91CF9108958FB57C
:100E800080688FBD08958FB58F738FBD08956032D0
:100E90002EE472078105910540F0613828E372075E
:100EA00021E08207910530F409C060E27EE480E031
:100EB00090E004C060E878E381E090E0DC01CB01E1
:100EC000B695A79597958795B695A7959795879584
:100ED000BC016150710977BD66BD08958EB5836010
:100EE0008EBD8FB582608FBD8EB588618EBD87B394
:100EF000806287BB60E573EC80E090E0C8DFC3CF21
:100F000008958130C9F030F0823071F1833009F4F6
:100F100044C0089526B537B5ADECBCEC25D1969507
:100F200087959695879596958795880F991F880F31
:100F3000991F9BBD8ABD089526B537B5ADECBCECB5
:100F400013D19C013695279536952795369527958B
:100F5000C901880F991F880F991F880F991F821B3D
:100F6000930B9BBD8ABD089526B537B5ADECBCEC9F
:100F7000FBD09695879596958795969587959C0134
:100F8000220F331F880F991F880F991F880F991FF1
:100F9000820F931F9BBD8ABD089526B537B5ADEC72
:100FA000BCECE2D096958795969587959695879512
:100FB000880F991F9BBD8ABD0895DCD8E7D8FECF66
:100FC000611104C02FEFFC0120830895FC01108201
:100FD000089561110CC0FC01508121E030E002C095
:100FE000220F331F4A95E2F7252B20830895FC0139
:100FF000508121E030E002C0220F331F4A95E2F712
:101000002095252320830895FC0160830895FC0129
:10101000413059F4208181E090E002C0880F991F8F
:101020006A95E2F7822B80830895908121E030E079
:1010300002C0220F331F6A95E2F7209529232083EF
:10104000089583B7856083BF87B7816087BF82E8D3
:1010500082BF089585B5836085BD87B7806887BFE7
:1010600085B5886085BD89EF83BD08958AB18861A3
:101070008AB98BB182608BB98FEC89B98AB18068EB
:101080008AB91092F30408951092D2011092F404D8
:1010900008958091D20190E001966AE070E051D00D
:1010A0002091F40430E08217930711F481E0089551
:1010B00080E008950F931F93CF93C82F8B01E9DF32
:1010C000882321F08AE891E08ED00DC0E091D20112
:1010D000D8018C91B0E5EB9FF0011124ED52FE4F49
:1010E000E80FF11DC083CF911F910F910895CF9309
:1010F000DF93EB018A30C9F4DDDF18828091D201E1
:101100008F5F8093D2012091D2018DEC289F812D99
:101110001124869586958695880F982F990F990F9B
:10112000890F281B2093D20104C0C4DF88818F5F00
:101130008883DF91CF9108958CB16BEA71E0D7CFAE
:10114000089597FB072E16F4009406D077FD08D07B
:101150001AD007FC05D03EF4909581959F4F0895D5
:10116000709561957F4F0895A29FB001B39FC00114
:10117000A39F700D811D1124911DB29F700D811DC3
:101180001124911D0895AA1BBB1B51E107C0AA1F82
:10119000BB1FA617B70710F0A61BB70B881F991F18
:1011A0005A95A9F780959095BC01CD010895FB0152
:1011B000DC018D91019080190110D9F3990B0895EC
:1011C000CF93DF93CDB7DEB7AE014B5F5F4FFA0130
:1011D00061917191AF0180915B0590915C0561D047
:1011E000DF91CF9108950F931F93CF93DF93E091F9
:1011F0005B05F0915C05238121FF1BC08C01D0E0D1
:10120000C0E0F80181918F0160915B0570915C05F0
:10121000DB011896ED91FC911997882331F009951F
:10122000892B79F3DFEFCFEFECCF8AE00995892B9B
:1012300019F08FEF9FEF02C08D2F9C2FDF91CF9180
:101240001F910F9108950F931F93CF93DF93CDB705
:10125000DEB72E970FB6F894DEBF0FBECDBF0D8957
:101260001E8986E08C831A8309838FEF9FE79E8314
:101270008D83AE01475E5F4F6F89788DCE010196F9
:1012800010D0EF81F885E00FF11F10822E960FB677
:10129000F894DEBF0FBECDBFDF91CF911F910F91AC
:1012A00008952F923F924F925F926F927F928F920A
:1012B0009F92AF92BF92CF92DF92EF92FF920F93E5
:1012C0001F93CF93DF93CDB7DEB72B970FB6F8946C
:1012D000DEBF0FBECDBF6C017B018A01FC0117820E
:1012E0001682838181FFBFC1CE0101963C01F601C8
:1012F0009381F70193FD859193FF81917F0188236D
:1013000009F4ADC1853239F493FD859193FF819144
:101310007F01853221F4B60190E0D6D1E8CF912C3F
:10132000212C312CFFE1F315D8F08B3279F038F411
:10133000803279F08332A1F4232D20611DC08D32DB
:1013400061F0803369F4232D216016C0832D826003
:10135000382EE32DE4603E2E2AC0F32DF8601DC028
:1013600037FC2DC020ED280F2A3040F08E32B9F422
:1013700036FC75C1232D2064322E19C036FE06C0FE
:101380008AE0989E200D1124922E11C0EAE02E9E34
:10139000200D1124222EF32DF0623F2E08C08C3632
:1013A00021F4832D8068382E02C0883641F4F7017D
:1013B00093FD859193FF81917F018111B3CF982F88
:1013C0009F7D9554933028F40C5F1F4F9FE39983C2
:1013D0000DC0833631F0833771F0833509F055C085
:1013E00020C0F801808189830E5F1F4F8824839479
:1013F000912C530112C02801F2E04F0E511CF8014C
:10140000A080B18036FE03C0692D70E002C06FEF8E
:101410007FEFC5014ED14C018201F32DFF773F2EA6
:1014200015C0280122E0420E511CF801A080B180B5
:1014300036FE03C0692D70E002C06FEF7FEFC5017B
:101440002DD14C01F32DF0683F2E820133FC19C0E1
:10145000822D90E088169906A0F4B60180E290E013
:1014600033D12A94F5CFF50137FC859137FE819170
:101470005F01B60190E028D121102A9421E0821A60
:1014800091088114910479F7E1C0843611F089360E
:1014900039F5F80137FE07C060817181828193813F
:1014A0000C5F1F4F08C060817181072E000C880BF4
:1014B000990B0E5F1F4FF32DFF763F2E97FF09C04C
:1014C00090958095709561957F4F8F4F9F4FF068F5
:1014D0003F2E2AE030E0A30133D1882E861844C085
:1014E000853731F4232D2F7EB22E2AE030E025C03F
:1014F000932D997FB92E8F36C1F018F4883579F085
:10150000AEC0803719F0883721F0A9C0E92FE0611B
:10151000BE2EB4FE0DC0FB2DF460BF2E09C034FEFC
:101520000AC0292F2660B22E06C028E030E005C090
:1015300020E130E002C020E132E0F801B7FE07C050
:1015400060817181828193810C5F1F4F06C0608131
:10155000718180E090E00E5F1F4FA301F1D0882ED3
:101560008618FB2DFF773F2E36FE0DC0232D2E7FD4
:10157000A22E891458F434FE0BC032FC09C0832D0E
:101580008E7EA82E05C0B82CA32C03C0B82C01C099
:10159000B92CA4FE0FC0FE01E80DF11D808180333F
:1015A00021F49A2D997EA92E09C0A2FE06C0B394FB
:1015B000B39404C08A2D867809F0B394A3FC10C0BC
:1015C000A0FE06C0B21480F4280C922C9B180DC00B
:1015D000B21458F4B60180E290E076D0B394F8CF1C
:1015E000B21418F42B1802C0982C212CA4FE0FC0A2
:1015F000B60180E390E068D0A2FE16C0A1FC03C053
:1016000088E790E002C088E590E0B6010CC08A2D22
:10161000867851F0A1FE02C08BE201C080E2A7FCF7
:101620008DE2B60190E050D0891430F4B60180E329
:1016300090E04AD09A94F8CF8A94F301E80DF11D16
:101640008081B60190E040D08110F6CF222009F4CD
:101650004ECEB60180E290E037D02A94F7CFF60163
:101660008681978102C08FEF9FEF2B960FB6F8947B
:10167000DEBF0FBECDBFDF91CF911F910F91FF90C5
:10168000EF90DF90CF90BF90AF909F908F907F9022
:101690006F905F904F903F902F900895FC010590C0
:1016A000615070400110D8F7809590958E0F9F1F64
:1016B0000895FC016150704001900110D8F78095A9
:1016C00090958E0F9F1F08950F931F93CF93DF93D5
:1016D000FB01238121FD03C08FEF9FEF2CC022FF70
:1016E00016C046815781248135814217530744F43F
:1016F000A081B1819D012F5F3F4F318320838C9367
:10170000268137812F5F3F4F3783268314C08B019B
:10171000EC01FB010084F185E02D0995892BE1F6B0
:10172000D80116968D919C911797019617969C93C8
:101730008E931697CE01DF91CF911F910F9108954F
:10174000FA01AA27283051F1203181F1E8946F93F2
:101750006E7F6E5F7F4F8F4F9F4FAF4FB1E03ED098
:10176000B4E03CD0670F781F891F9A1FA11D680F36
:10177000791F8A1F911DA11D6A0F711D811D911D69
:10178000A11D20D009F468943F912AE0269F1124DE
:101790003019305D3193DEF6CF010895462F477042
:1017A000405D4193B3E00FD0C9F7F6CF462F4F709D
:1017B000405D4A3318F0495D31FD4052419302D0FB
:1017C000A9F7EACFB4E0A6959795879577956795A1
:1017D000BA95C9F700976105710508959B01AC01A1
:1017E0000A2E06945795479537952795BA95C9F7C8
:1017F000620F731F841F951FA01D0895F894FFCFDB
:10180000054F4646002D312D002D322D002D332D54
:1018100000000000004F46460030312000303220EA
:1018200000303320005350200009133F065B4F6601
:101830006D7D077F678046414E5F53544F500A00CD
:1018400046414E5F444F574E0A0046414E5F555049
:101850000A0046414E5F5350454349414C0A0046F9
:10186000414E5F54494D45520A005B5461626C65BC
:10187000204D696E692046616E5D0046414E20250F
:10188000732C54696D6572257300ED8190EAB08008
:1018900020EAB080EB939D20ECB0BCEC8AB5EB8BDA
:0618A00088EB8BA40000A0
:00000001FF
